{
  "_format": "hh-sol-artifact-1",
  "contractName": "GithubInterepNFT",
  "sourceName": "contracts/GithubInterepNFT.sol",
  "abi": [
    {
      "inputs": [
        {
          "internalType": "address",
          "name": "interepAddress",
          "type": "address"
        }
      ],
      "stateMutability": "nonpayable",
      "type": "constructor"
    },
    {
      "anonymous": false,
      "inputs": [
        {
          "indexed": true,
          "internalType": "address",
          "name": "owner",
          "type": "address"
        },
        {
          "indexed": true,
          "internalType": "address",
          "name": "approved",
          "type": "address"
        },
        {
          "indexed": true,
          "internalType": "uint256",
          "name": "tokenId",
          "type": "uint256"
        }
      ],
      "name": "Approval",
      "type": "event"
    },
    {
      "anonymous": false,
      "inputs": [
        {
          "indexed": true,
          "internalType": "address",
          "name": "owner",
          "type": "address"
        },
        {
          "indexed": true,
          "internalType": "address",
          "name": "operator",
          "type": "address"
        },
        {
          "indexed": false,
          "internalType": "bool",
          "name": "approved",
          "type": "bool"
        }
      ],
      "name": "ApprovalForAll",
      "type": "event"
    },
    {
      "anonymous": false,
      "inputs": [
        {
          "indexed": true,
          "internalType": "address",
          "name": "from",
          "type": "address"
        },
        {
          "indexed": true,
          "internalType": "address",
          "name": "to",
          "type": "address"
        },
        {
          "indexed": true,
          "internalType": "uint256",
          "name": "tokenId",
          "type": "uint256"
        }
      ],
      "name": "Transfer",
      "type": "event"
    },
    {
      "inputs": [
        {
          "internalType": "address",
          "name": "to",
          "type": "address"
        },
        {
          "internalType": "uint256",
          "name": "tokenId",
          "type": "uint256"
        }
      ],
      "name": "approve",
      "outputs": [],
      "stateMutability": "nonpayable",
      "type": "function"
    },
    {
      "inputs": [
        {
          "internalType": "address",
          "name": "owner",
          "type": "address"
        }
      ],
      "name": "balanceOf",
      "outputs": [
        {
          "internalType": "uint256",
          "name": "",
          "type": "uint256"
        }
      ],
      "stateMutability": "view",
      "type": "function"
    },
    {
      "inputs": [
        {
          "internalType": "uint256",
          "name": "tokenId",
          "type": "uint256"
        }
      ],
      "name": "getApproved",
      "outputs": [
        {
          "internalType": "address",
          "name": "",
          "type": "address"
        }
      ],
      "stateMutability": "view",
      "type": "function"
    },
    {
      "inputs": [],
      "name": "interep",
      "outputs": [
        {
          "internalType": "contract IInterep",
          "name": "",
          "type": "address"
        }
      ],
      "stateMutability": "view",
      "type": "function"
    },
    {
      "inputs": [
        {
          "internalType": "address",
          "name": "owner",
          "type": "address"
        },
        {
          "internalType": "address",
          "name": "operator",
          "type": "address"
        }
      ],
      "name": "isApprovedForAll",
      "outputs": [
        {
          "internalType": "bool",
          "name": "",
          "type": "bool"
        }
      ],
      "stateMutability": "view",
      "type": "function"
    },
    {
      "inputs": [
        {
          "internalType": "uint256",
          "name": "nullifierHash",
          "type": "uint256"
        },
        {
          "internalType": "uint256[8]",
          "name": "proof",
          "type": "uint256[8]"
        }
      ],
      "name": "mint",
      "outputs": [],
      "stateMutability": "nonpayable",
      "type": "function"
    },
    {
      "inputs": [],
      "name": "name",
      "outputs": [
        {
          "internalType": "string",
          "name": "",
          "type": "string"
        }
      ],
      "stateMutability": "view",
      "type": "function"
    },
    {
      "inputs": [
        {
          "internalType": "uint256",
          "name": "tokenId",
          "type": "uint256"
        }
      ],
      "name": "ownerOf",
      "outputs": [
        {
          "internalType": "address",
          "name": "",
          "type": "address"
        }
      ],
      "stateMutability": "view",
      "type": "function"
    },
    {
      "inputs": [
        {
          "internalType": "address",
          "name": "from",
          "type": "address"
        },
        {
          "internalType": "address",
          "name": "to",
          "type": "address"
        },
        {
          "internalType": "uint256",
          "name": "tokenId",
          "type": "uint256"
        }
      ],
      "name": "safeTransferFrom",
      "outputs": [],
      "stateMutability": "nonpayable",
      "type": "function"
    },
    {
      "inputs": [
        {
          "internalType": "address",
          "name": "from",
          "type": "address"
        },
        {
          "internalType": "address",
          "name": "to",
          "type": "address"
        },
        {
          "internalType": "uint256",
          "name": "tokenId",
          "type": "uint256"
        },
        {
          "internalType": "bytes",
          "name": "_data",
          "type": "bytes"
        }
      ],
      "name": "safeTransferFrom",
      "outputs": [],
      "stateMutability": "nonpayable",
      "type": "function"
    },
    {
      "inputs": [
        {
          "internalType": "address",
          "name": "operator",
          "type": "address"
        },
        {
          "internalType": "bool",
          "name": "approved",
          "type": "bool"
        }
      ],
      "name": "setApprovalForAll",
      "outputs": [],
      "stateMutability": "nonpayable",
      "type": "function"
    },
    {
      "inputs": [
        {
          "internalType": "bytes4",
          "name": "interfaceId",
          "type": "bytes4"
        }
      ],
      "name": "supportsInterface",
      "outputs": [
        {
          "internalType": "bool",
          "name": "",
          "type": "bool"
        }
      ],
      "stateMutability": "view",
      "type": "function"
    },
    {
      "inputs": [],
      "name": "symbol",
      "outputs": [
        {
          "internalType": "string",
          "name": "",
          "type": "string"
        }
      ],
      "stateMutability": "view",
      "type": "function"
    },
    {
      "inputs": [
        {
          "internalType": "uint256",
          "name": "tokenId",
          "type": "uint256"
        }
      ],
      "name": "tokenURI",
      "outputs": [
        {
          "internalType": "string",
          "name": "",
          "type": "string"
        }
      ],
      "stateMutability": "view",
      "type": "function"
    },
    {
      "inputs": [
        {
          "internalType": "address",
          "name": "from",
          "type": "address"
        },
        {
          "internalType": "address",
          "name": "to",
          "type": "address"
        },
        {
          "internalType": "uint256",
          "name": "tokenId",
          "type": "uint256"
        }
      ],
      "name": "transferFrom",
      "outputs": [],
      "stateMutability": "nonpayable",
      "type": "function"
    }
  ],
  "bytecode": "0x60806040523480156200001157600080fd5b5060405162002bf138038062002bf18339818101604052810190620000379190620001e6565b6040518060400160405280600d81526020017f496e7465726570476974687562000000000000000000000000000000000000008152506040518060400160405280600481526020017f49524748000000000000000000000000000000000000000000000000000000008152508160009080519060200190620000bb9291906200011f565b508060019080519060200190620000d49291906200011f565b50505080600660006101000a81548173ffffffffffffffffffffffffffffffffffffffff021916908373ffffffffffffffffffffffffffffffffffffffff16021790555050620002c5565b8280546200012d9062000246565b90600052602060002090601f0160209004810192826200015157600085556200019d565b82601f106200016c57805160ff19168380011785556200019d565b828001600101855582156200019d579182015b828111156200019c5782518255916020019190600101906200017f565b5b509050620001ac9190620001b0565b5090565b5b80821115620001cb576000816000905550600101620001b1565b5090565b600081519050620001e081620002ab565b92915050565b600060208284031215620001f957600080fd5b60006200020984828501620001cf565b91505092915050565b60006200021f8262000226565b9050919050565b600073ffffffffffffffffffffffffffffffffffffffff82169050919050565b600060028204905060018216806200025f57607f821691505b602082108114156200027657620002756200027c565b5b50919050565b7f4e487b7100000000000000000000000000000000000000000000000000000000600052602260045260246000fd5b620002b68162000212565b8114620002c257600080fd5b50565b61291c80620002d56000396000f3fe608060405234801561001057600080fd5b50600436106100f55760003560e01c80636352211e11610097578063a22cb46511610066578063a22cb46514610284578063b88d4fde146102a0578063c87b56dd146102bc578063e985e9c5146102ec576100f5565b80636352211e146101ea57806370a082311461021a5780637aa095761461024a57806395d89b4114610266576100f5565b8063095ea7b3116100d3578063095ea7b31461017857806323b872dd1461019457806342842e0e146101b05780635d0a8dc2146101cc576100f5565b806301ffc9a7146100fa57806306fdde031461012a578063081812fc14610148575b600080fd5b610114600480360381019061010f9190611a15565b61031c565b6040516101219190611e41565b60405180910390f35b6101326103fe565b60405161013f9190611e77565b60405180910390f35b610162600480360381019061015d9190611a67565b610490565b60405161016f9190611dda565b60405180910390f35b610192600480360381019061018d91906119d9565b610515565b005b6101ae60048036038101906101a991906118d3565b61062d565b005b6101ca60048036038101906101c591906118d3565b61068d565b005b6101d46106ad565b6040516101e19190611e5c565b60405180910390f35b61020460048036038101906101ff9190611a67565b6106d3565b6040516102119190611dda565b60405180910390f35b610234600480360381019061022f919061186e565b610785565b6040516102419190612059565b60405180910390f35b610264600480360381019061025f9190611a90565b61083d565b005b61026e610933565b60405161027b9190611e77565b60405180910390f35b61029e6004803603810190610299919061199d565b6109c5565b005b6102ba60048036038101906102b59190611922565b6109db565b005b6102d660048036038101906102d19190611a67565b610a3d565b6040516102e39190611e77565b60405180910390f35b61030660048036038101906103019190611897565b610ae4565b6040516103139190611e41565b60405180910390f35b60007f80ac58cd000000000000000000000000000000000000000000000000000000007bffffffffffffffffffffffffffffffffffffffffffffffffffffffff1916827bffffffffffffffffffffffffffffffffffffffffffffffffffffffff191614806103e757507f5b5e139f000000000000000000000000000000000000000000000000000000007bffffffffffffffffffffffffffffffffffffffffffffffffffffffff1916827bffffffffffffffffffffffffffffffffffffffffffffffffffffffff1916145b806103f757506103f682610b78565b5b9050919050565b60606000805461040d90612300565b80601f016020809104026020016040519081016040528092919081815260200182805461043990612300565b80156104865780601f1061045b57610100808354040283529160200191610486565b820191906000526020600020905b81548152906001019060200180831161046957829003601f168201915b5050505050905090565b600061049b82610be2565b6104da576040517f08c379a00000000000000000000000000000000000000000000000000000000081526004016104d190611fd9565b60405180910390fd5b6004600083815260200190815260200160002060009054906101000a900473ffffffffffffffffffffffffffffffffffffffff169050919050565b6000610520826106d3565b90508073ffffffffffffffffffffffffffffffffffffffff168373ffffffffffffffffffffffffffffffffffffffff161415610591576040517f08c379a000000000000000000000000000000000000000000000000000000000815260040161058890612019565b60405180910390fd5b8073ffffffffffffffffffffffffffffffffffffffff166105b0610c4e565b73ffffffffffffffffffffffffffffffffffffffff1614806105df57506105de816105d9610c4e565b610ae4565b5b61061e576040517f08c379a000000000000000000000000000000000000000000000000000000000815260040161061590611f59565b60405180910390fd5b6106288383610c56565b505050565b61063e610638610c4e565b82610d0f565b61067d576040517f08c379a000000000000000000000000000000000000000000000000000000000815260040161067490612039565b60405180910390fd5b610688838383610ded565b505050565b6106a8838383604051806020016040528060008152506109db565b505050565b600660009054906101000a900473ffffffffffffffffffffffffffffffffffffffff1681565b6000806002600084815260200190815260200160002060009054906101000a900473ffffffffffffffffffffffffffffffffffffffff169050600073ffffffffffffffffffffffffffffffffffffffff168173ffffffffffffffffffffffffffffffffffffffff16141561077c576040517f08c379a000000000000000000000000000000000000000000000000000000000815260040161077390611f99565b60405180910390fd5b80915050919050565b60008073ffffffffffffffffffffffffffffffffffffffff168273ffffffffffffffffffffffffffffffffffffffff1614156107f6576040517f08c379a00000000000000000000000000000000000000000000000000000000081526004016107ed90611f79565b60405180910390fd5b600360008373ffffffffffffffffffffffffffffffffffffffff1673ffffffffffffffffffffffffffffffffffffffff168152602001908152602001600020549050919050565b60007f2bc2708a1dc737fb2a7176a8aebb222070b812f871c678403d9f393fdc079885905060007f6769746875622d6e6674000000000000000000000000000000000000000000009050600660009054906101000a900473ffffffffffffffffffffffffffffffffffffffff1673ffffffffffffffffffffffffffffffffffffffff16636673e84983838786886040518663ffffffff1660e01b81526004016108ea959493929190612074565b600060405180830381600087803b15801561090457600080fd5b505af1158015610918573d6000803e3d6000fd5b5050505061092d610927610c4e565b85611054565b50505050565b60606001805461094290612300565b80601f016020809104026020016040519081016040528092919081815260200182805461096e90612300565b80156109bb5780601f10610990576101008083540402835291602001916109bb565b820191906000526020600020905b81548152906001019060200180831161099e57829003601f168201915b5050505050905090565b6109d76109d0610c4e565b838361122e565b5050565b6109ec6109e6610c4e565b83610d0f565b610a2b576040517f08c379a0000000000000000000000000000000000000000000000000000000008152600401610a2290612039565b60405180910390fd5b610a378484848461139b565b50505050565b6060610a4882610be2565b610a87576040517f08c379a0000000000000000000000000000000000000000000000000000000008152600401610a7e90611ff9565b60405180910390fd5b6000610a916113f7565b90506000815111610ab15760405180602001604052806000815250610adc565b80610abb8461140e565b604051602001610acc929190611db6565b6040516020818303038152906040525b915050919050565b6000600560008473ffffffffffffffffffffffffffffffffffffffff1673ffffffffffffffffffffffffffffffffffffffff16815260200190815260200160002060008373ffffffffffffffffffffffffffffffffffffffff1673ffffffffffffffffffffffffffffffffffffffff16815260200190815260200160002060009054906101000a900460ff16905092915050565b60007f01ffc9a7000000000000000000000000000000000000000000000000000000007bffffffffffffffffffffffffffffffffffffffffffffffffffffffff1916827bffffffffffffffffffffffffffffffffffffffffffffffffffffffff1916149050919050565b60008073ffffffffffffffffffffffffffffffffffffffff166002600084815260200190815260200160002060009054906101000a900473ffffffffffffffffffffffffffffffffffffffff1673ffffffffffffffffffffffffffffffffffffffff1614159050919050565b600033905090565b816004600083815260200190815260200160002060006101000a81548173ffffffffffffffffffffffffffffffffffffffff021916908373ffffffffffffffffffffffffffffffffffffffff160217905550808273ffffffffffffffffffffffffffffffffffffffff16610cc9836106d3565b73ffffffffffffffffffffffffffffffffffffffff167f8c5be1e5ebec7d5bd14f71427d1e84f3dd0314c0f7b2291e5b200ac8c7c3b92560405160405180910390a45050565b6000610d1a82610be2565b610d59576040517f08c379a0000000000000000000000000000000000000000000000000000000008152600401610d5090611f39565b60405180910390fd5b6000610d64836106d3565b90508073ffffffffffffffffffffffffffffffffffffffff168473ffffffffffffffffffffffffffffffffffffffff161480610dd357508373ffffffffffffffffffffffffffffffffffffffff16610dbb84610490565b73ffffffffffffffffffffffffffffffffffffffff16145b80610de45750610de38185610ae4565b5b91505092915050565b8273ffffffffffffffffffffffffffffffffffffffff16610e0d826106d3565b73ffffffffffffffffffffffffffffffffffffffff1614610e63576040517f08c379a0000000000000000000000000000000000000000000000000000000008152600401610e5a90611eb9565b60405180910390fd5b600073ffffffffffffffffffffffffffffffffffffffff168273ffffffffffffffffffffffffffffffffffffffff161415610ed3576040517f08c379a0000000000000000000000000000000000000000000000000000000008152600401610eca90611ef9565b60405180910390fd5b610ede8383836115bb565b610ee9600082610c56565b6001600360008573ffffffffffffffffffffffffffffffffffffffff1673ffffffffffffffffffffffffffffffffffffffff1681526020019081526020016000206000828254610f3991906121e8565b925050819055506001600360008473ffffffffffffffffffffffffffffffffffffffff1673ffffffffffffffffffffffffffffffffffffffff1681526020019081526020016000206000828254610f909190612161565b92505081905550816002600083815260200190815260200160002060006101000a81548173ffffffffffffffffffffffffffffffffffffffff021916908373ffffffffffffffffffffffffffffffffffffffff160217905550808273ffffffffffffffffffffffffffffffffffffffff168473ffffffffffffffffffffffffffffffffffffffff167fddf252ad1be2c89b69c2b068fc378daa952ba7f163c4a11628f55a4df523b3ef60405160405180910390a461104f8383836115c0565b505050565b600073ffffffffffffffffffffffffffffffffffffffff168273ffffffffffffffffffffffffffffffffffffffff1614156110c4576040517f08c379a00000000000000000000000000000000000000000000000000000000081526004016110bb90611fb9565b60405180910390fd5b6110cd81610be2565b1561110d576040517f08c379a000000000000000000000000000000000000000000000000000000000815260040161110490611ed9565b60405180910390fd5b611119600083836115bb565b6001600360008473ffffffffffffffffffffffffffffffffffffffff1673ffffffffffffffffffffffffffffffffffffffff16815260200190815260200160002060008282546111699190612161565b92505081905550816002600083815260200190815260200160002060006101000a81548173ffffffffffffffffffffffffffffffffffffffff021916908373ffffffffffffffffffffffffffffffffffffffff160217905550808273ffffffffffffffffffffffffffffffffffffffff16600073ffffffffffffffffffffffffffffffffffffffff167fddf252ad1be2c89b69c2b068fc378daa952ba7f163c4a11628f55a4df523b3ef60405160405180910390a461122a600083836115c0565b5050565b8173ffffffffffffffffffffffffffffffffffffffff168373ffffffffffffffffffffffffffffffffffffffff16141561129d576040517f08c379a000000000000000000000000000000000000000000000000000000000815260040161129490611f19565b60405180910390fd5b80600560008573ffffffffffffffffffffffffffffffffffffffff1673ffffffffffffffffffffffffffffffffffffffff16815260200190815260200160002060008473ffffffffffffffffffffffffffffffffffffffff1673ffffffffffffffffffffffffffffffffffffffff16815260200190815260200160002060006101000a81548160ff0219169083151502179055508173ffffffffffffffffffffffffffffffffffffffff168373ffffffffffffffffffffffffffffffffffffffff167f17307eab39ab6107e8899845ad3d59bd9653f200f220920489ca2b5937696c318360405161138e9190611e41565b60405180910390a3505050565b6113a6848484610ded565b6113b2848484846115c5565b6113f1576040517f08c379a00000000000000000000000000000000000000000000000000000000081526004016113e890611e99565b60405180910390fd5b50505050565b606060405180602001604052806000815250905090565b60606000821415611456576040518060400160405280600181526020017f300000000000000000000000000000000000000000000000000000000000000081525090506115b6565b600082905060005b6000821461148857808061147190612363565b915050600a8261148191906121b7565b915061145e565b60008167ffffffffffffffff8111156114ca577f4e487b7100000000000000000000000000000000000000000000000000000000600052604160045260246000fd5b6040519080825280601f01601f1916602001820160405280156114fc5781602001600182028036833780820191505090505b5090505b600085146115af5760018261151591906121e8565b9150600a8561152491906123ac565b60306115309190612161565b60f81b81838151811061156c577f4e487b7100000000000000000000000000000000000000000000000000000000600052603260045260246000fd5b60200101907effffffffffffffffffffffffffffffffffffffffffffffffffffffffffffff1916908160001a905350600a856115a891906121b7565b9450611500565b8093505050505b919050565b505050565b505050565b60006115e68473ffffffffffffffffffffffffffffffffffffffff1661175c565b1561174f578373ffffffffffffffffffffffffffffffffffffffff1663150b7a0261160f610c4e565b8786866040518563ffffffff1660e01b81526004016116319493929190611df5565b602060405180830381600087803b15801561164b57600080fd5b505af192505050801561167c57506040513d601f19601f820116820180604052508101906116799190611a3e565b60015b6116ff573d80600081146116ac576040519150601f19603f3d011682016040523d82523d6000602084013e6116b1565b606091505b506000815114156116f7576040517f08c379a00000000000000000000000000000000000000000000000000000000081526004016116ee90611e99565b60405180910390fd5b805181602001fd5b63150b7a0260e01b7bffffffffffffffffffffffffffffffffffffffffffffffffffffffff1916817bffffffffffffffffffffffffffffffffffffffffffffffffffffffff191614915050611754565b600190505b949350505050565b6000808273ffffffffffffffffffffffffffffffffffffffff163b119050919050565b600061179261178d846120ed565b6120c8565b9050828152602081018484840111156117aa57600080fd5b6117b58482856122be565b509392505050565b6000813590506117cc8161288a565b92915050565b6000819050826020600802820111156117ea57600080fd5b92915050565b6000813590506117ff816128a1565b92915050565b600081359050611814816128b8565b92915050565b600081519050611829816128b8565b92915050565b600082601f83011261184057600080fd5b813561185084826020860161177f565b91505092915050565b600081359050611868816128cf565b92915050565b60006020828403121561188057600080fd5b600061188e848285016117bd565b91505092915050565b600080604083850312156118aa57600080fd5b60006118b8858286016117bd565b92505060206118c9858286016117bd565b9150509250929050565b6000806000606084860312156118e857600080fd5b60006118f6868287016117bd565b9350506020611907868287016117bd565b925050604061191886828701611859565b9150509250925092565b6000806000806080858703121561193857600080fd5b6000611946878288016117bd565b9450506020611957878288016117bd565b935050604061196887828801611859565b925050606085013567ffffffffffffffff81111561198557600080fd5b6119918782880161182f565b91505092959194509250565b600080604083850312156119b057600080fd5b60006119be858286016117bd565b92505060206119cf858286016117f0565b9150509250929050565b600080604083850312156119ec57600080fd5b60006119fa858286016117bd565b9250506020611a0b85828601611859565b9150509250929050565b600060208284031215611a2757600080fd5b6000611a3584828501611805565b91505092915050565b600060208284031215611a5057600080fd5b6000611a5e8482850161181a565b91505092915050565b600060208284031215611a7957600080fd5b6000611a8784828501611859565b91505092915050565b6000806101208385031215611aa457600080fd5b6000611ab285828601611859565b9250506020611ac3858286016117d2565b9150509250929050565b611ad68161221c565b82525050565b611ae961010083836122be565b5050565b611af68161222e565b82525050565b611b058161223a565b82525050565b6000611b168261211e565b611b208185612134565b9350611b308185602086016122cd565b611b3981612499565b840191505092915050565b611b4d8161229a565b82525050565b6000611b5e82612129565b611b688185612145565b9350611b788185602086016122cd565b611b8181612499565b840191505092915050565b6000611b9782612129565b611ba18185612156565b9350611bb18185602086016122cd565b80840191505092915050565b6000611bca603283612145565b9150611bd5826124aa565b604082019050919050565b6000611bed602583612145565b9150611bf8826124f9565b604082019050919050565b6000611c10601c83612145565b9150611c1b82612548565b602082019050919050565b6000611c33602483612145565b9150611c3e82612571565b604082019050919050565b6000611c56601983612145565b9150611c61826125c0565b602082019050919050565b6000611c79602c83612145565b9150611c84826125e9565b604082019050919050565b6000611c9c603883612145565b9150611ca782612638565b604082019050919050565b6000611cbf602a83612145565b9150611cca82612687565b604082019050919050565b6000611ce2602983612145565b9150611ced826126d6565b604082019050919050565b6000611d05602083612145565b9150611d1082612725565b602082019050919050565b6000611d28602c83612145565b9150611d338261274e565b604082019050919050565b6000611d4b602f83612145565b9150611d568261279d565b604082019050919050565b6000611d6e602183612145565b9150611d79826127ec565b604082019050919050565b6000611d91603183612145565b9150611d9c8261283b565b604082019050919050565b611db081612290565b82525050565b6000611dc28285611b8c565b9150611dce8284611b8c565b91508190509392505050565b6000602082019050611def6000830184611acd565b92915050565b6000608082019050611e0a6000830187611acd565b611e176020830186611acd565b611e246040830185611da7565b8181036060830152611e368184611b0b565b905095945050505050565b6000602082019050611e566000830184611aed565b92915050565b6000602082019050611e716000830184611b44565b92915050565b60006020820190508181036000830152611e918184611b53565b905092915050565b60006020820190508181036000830152611eb281611bbd565b9050919050565b60006020820190508181036000830152611ed281611be0565b9050919050565b60006020820190508181036000830152611ef281611c03565b9050919050565b60006020820190508181036000830152611f1281611c26565b9050919050565b60006020820190508181036000830152611f3281611c49565b9050919050565b60006020820190508181036000830152611f5281611c6c565b9050919050565b60006020820190508181036000830152611f7281611c8f565b9050919050565b60006020820190508181036000830152611f9281611cb2565b9050919050565b60006020820190508181036000830152611fb281611cd5565b9050919050565b60006020820190508181036000830152611fd281611cf8565b9050919050565b60006020820190508181036000830152611ff281611d1b565b9050919050565b6000602082019050818103600083015261201281611d3e565b9050919050565b6000602082019050818103600083015261203281611d61565b9050919050565b6000602082019050818103600083015261205281611d84565b9050919050565b600060208201905061206e6000830184611da7565b92915050565b60006101808201905061208a6000830188611da7565b6120976020830187611afc565b6120a46040830186611da7565b6120b16060830185611da7565b6120be6080830184611adc565b9695505050505050565b60006120d26120e3565b90506120de8282612332565b919050565b6000604051905090565b600067ffffffffffffffff8211156121085761210761246a565b5b61211182612499565b9050602081019050919050565b600081519050919050565b600081519050919050565b600082825260208201905092915050565b600082825260208201905092915050565b600081905092915050565b600061216c82612290565b915061217783612290565b9250827fffffffffffffffffffffffffffffffffffffffffffffffffffffffffffffffff038211156121ac576121ab6123dd565b5b828201905092915050565b60006121c282612290565b91506121cd83612290565b9250826121dd576121dc61240c565b5b828204905092915050565b60006121f382612290565b91506121fe83612290565b925082821015612211576122106123dd565b5b828203905092915050565b600061222782612270565b9050919050565b60008115159050919050565b6000819050919050565b60007fffffffff0000000000000000000000000000000000000000000000000000000082169050919050565b600073ffffffffffffffffffffffffffffffffffffffff82169050919050565b6000819050919050565b60006122a5826122ac565b9050919050565b60006122b782612270565b9050919050565b82818337600083830152505050565b60005b838110156122eb5780820151818401526020810190506122d0565b838111156122fa576000848401525b50505050565b6000600282049050600182168061231857607f821691505b6020821081141561232c5761232b61243b565b5b50919050565b61233b82612499565b810181811067ffffffffffffffff8211171561235a5761235961246a565b5b80604052505050565b600061236e82612290565b91507fffffffffffffffffffffffffffffffffffffffffffffffffffffffffffffffff8214156123a1576123a06123dd565b5b600182019050919050565b60006123b782612290565b91506123c283612290565b9250826123d2576123d161240c565b5b828206905092915050565b7f4e487b7100000000000000000000000000000000000000000000000000000000600052601160045260246000fd5b7f4e487b7100000000000000000000000000000000000000000000000000000000600052601260045260246000fd5b7f4e487b7100000000000000000000000000000000000000000000000000000000600052602260045260246000fd5b7f4e487b7100000000000000000000000000000000000000000000000000000000600052604160045260246000fd5b6000601f19601f8301169050919050565b7f4552433732313a207472616e7366657220746f206e6f6e20455243373231526560008201527f63656976657220696d706c656d656e7465720000000000000000000000000000602082015250565b7f4552433732313a207472616e736665722066726f6d20696e636f72726563742060008201527f6f776e6572000000000000000000000000000000000000000000000000000000602082015250565b7f4552433732313a20746f6b656e20616c7265616479206d696e74656400000000600082015250565b7f4552433732313a207472616e7366657220746f20746865207a65726f2061646460008201527f7265737300000000000000000000000000000000000000000000000000000000602082015250565b7f4552433732313a20617070726f766520746f2063616c6c657200000000000000600082015250565b7f4552433732313a206f70657261746f7220717565727920666f72206e6f6e657860008201527f697374656e7420746f6b656e0000000000000000000000000000000000000000602082015250565b7f4552433732313a20617070726f76652063616c6c6572206973206e6f74206f7760008201527f6e6572206e6f7220617070726f76656420666f7220616c6c0000000000000000602082015250565b7f4552433732313a2062616c616e636520717565727920666f7220746865207a6560008201527f726f206164647265737300000000000000000000000000000000000000000000602082015250565b7f4552433732313a206f776e657220717565727920666f72206e6f6e657869737460008201527f656e7420746f6b656e0000000000000000000000000000000000000000000000602082015250565b7f4552433732313a206d696e7420746f20746865207a65726f2061646472657373600082015250565b7f4552433732313a20617070726f76656420717565727920666f72206e6f6e657860008201527f697374656e7420746f6b656e0000000000000000000000000000000000000000602082015250565b7f4552433732314d657461646174613a2055524920717565727920666f72206e6f60008201527f6e6578697374656e7420746f6b656e0000000000000000000000000000000000602082015250565b7f4552433732313a20617070726f76616c20746f2063757272656e74206f776e6560008201527f7200000000000000000000000000000000000000000000000000000000000000602082015250565b7f4552433732313a207472616e736665722063616c6c6572206973206e6f74206f60008201527f776e6572206e6f7220617070726f766564000000000000000000000000000000602082015250565b6128938161221c565b811461289e57600080fd5b50565b6128aa8161222e565b81146128b557600080fd5b50565b6128c181612244565b81146128cc57600080fd5b50565b6128d881612290565b81146128e357600080fd5b5056fea2646970667358221220b0ca1603a9cbeaaf096a2953635dfea62d99f544fe2ab88608b743a03a0bc43464736f6c63430008040033",
  "linkReferences": {},
  "deployedLinkReferences": {}
}